:020000001628C0
:0E0006008312031321088A00200882000800DC
:1000140003208A110A128000840AA00A0319A10A83
:08002400F003031D0A28080087
:10002C008316031788018901860103138701880150
:10003C008901213083128600043087004230880009
:10004C000330FB008A30FC005530FD00FD0B2C28E2
:10005C00FC0B2C28FB0B2C28000000008601043024
:10006C00870088010330FB008A30FC005530FD000E
:10007C00FD0B3E28FC0B3E28FB0B3E28000000002D
:10008C00203086008701023088000330FB008A3064
:10009C00FC005530FD00FD0B5128FC0B5128FB0BCF
:1000AC005128000000000130860087014030880094
:1000BC000330FB008A30FC005530FD00FD0B64283A
:1000CC00FC0B6428FB0B6428000000002130860028
:1000DC0004308700423088000330FB008A30FC007B
:1000EC005530FD00FD0B7828FC0B7828FB0B78288D
:1000FC00000000000130860004308700403088008A
:10010C000330FB008A30FC005530FD00FD0B8C28C1
:10011C00FC0B8C28FB0B8C280000000001308600A7
:10012C0004308700403088000330FB008A30FC002C
:10013C005530FD00FD0BA028FC0BA028FB0BA028C4
:10014C000000000020308600043087004230880018
:10015C000330FB008A30FC005530FD00FD0BB42849
:10016C00FC0BB428FB0BB428000000008601043003
:10017C00870088010330FB008A30FC005530FD00FD
:10018C00FD0BC628FC0BC628FB0BC6280000000084
:10019C00860104308700423088000330FB008A302F
:1001AC00FC005530FD00FD0BD928FC0BD928FB0BAE
:1001BC00D92800000000203086000430870042302F
:1001CC0088000330FB008A30FC005530FD00FD0B2D
:1001DC00ED28FC0BED28FB0BED2800000000860140
:1001EC000430870088010330FB008A30FC00553056
:1001FC00FD00FD0BFF28FC0BFF28FB0BFF2800006C
:10020C000000860104308700423088000330FB0078
:10021C008A30FC005530FD00FD0B1229FC0B122915
:10022C00FB0B12290000000020308600870188019A
:10023C000330FB008A30FC005530FD00FD0B2429F7
:10024C00FC0B2429FB0B2429000000002130860024
:10025C0004308700423088000330FB008A30FC00F9
:10026C005530FD00FD0B3829FC0B3829FB0B3829C8
:10027C000000000020308600870188010330FB005D
:10028C008A30FC005530FD00FD0B4A29FC0B4A2935
:0C029C00FB0B4A29000000001F2853291A
:04400E00D2230007B2
:00000001FF
